:100000000C9462000C948A000C948A000C948A0070
:100010000C948A000C948A000C948A000C948A0038
:100020000C948A000C948A000C948A000C948A0028
:100030000C948A000C948A000C948A000C948A0018
:100040000C9495020C948A000C9405030C94DF0226
:100050000C948A000C948A000C948A000C948A00F8
:100060000C948A000C948A000000000024002700F1
:100070002A000000000023002600290000000000E4
:10008000250028002B0004040404040404040202D4
:100090000202020203030303030301020408102007
:1000A0004080010204081020010204081020000012
:1000B0000008000201000003040700000000000027
:1000C00000000F0511241FBECFEFD8E0DEBFCDBF6B
:1000D00022E0A2E0B2E001C01D92AC3AB207E1F723
:1000E00012E0A0E0B1E0E4E0FFE002C005900D9274
:1000F000A230B107D9F710E0C2E6D0E004C02197E2
:10010000FE010E947F05C136D107C9F70E9437035F
:100110000C9480070C940000833081F028F4813027
:1001200099F08230A9F008958730A9F08830C9F09D
:100130008430B1F4809180008F7D03C08091800075
:100140008F7780938000089584B58F7784BD08955C
:1001500084B58F7DFBCF8091B0008F778093B00006
:1001600008958091B0008F7DF9CF1F93CF93DF93D7
:10017000EBEBF0E09491E7EAF0E0D491E3E9F0E012
:10018000C491CC23B9F0182F992319F0892F0E941C
:100190008C00EC2FF0E0EE0FFF1FE458FF4FA5910D
:1001A000B4918FB7F894EC91111108C0D095DE236B
:1001B000DC938FBFDF91CF911F910895DE2BF8CF95
:1001C0003FB7F8948091030290910402A091050238
:1001D000B091060226B5A89B05C02F3F19F00196E5
:1001E000A11DB11D3FBFBA2FA92F982F8827BC0191
:1001F000CD01620F711D811D911D42E0660F771FB9
:10020000881F991F4A95D1F70895AF92BF92CF9258
:10021000DF92EF92FF920F931F93CF93DF936C01C6
:100220007B018B01040F151FEB015E01AE18BF08A7
:10023000C017D10759F06991D601ED91FC91019059
:10024000F081E02DC6010995892B79F7C501DF9171
:10025000CF911F910F91FF90EF90DF90CF90BF90C3
:10026000AF900895FC01538D448D252F30E0842FED
:1002700090E0821B930B541710F0CF9608950197CE
:100280000895FC01918D828D981761F0A28DAE0FBB
:10029000BF2FB11D5D968C91928D9F5F9F73928F42
:1002A00090E008958FEF9FEF08952FB7F894809115
:1002B000070290910802A0910902B0910A022FBF93
:1002C0008093130290931402A0931502B093160228
:1002D0008BE092E00E94410197FF26C02FB7F8946F
:1002E0008091070290910802A0910902B0910A0240
:1002F0002FBF40911302509114026091150270912A
:100300001602841B950BA60BB70B40910F02509160
:100310001002609111027091120284179507A607CE
:10032000B707B0F28FEF9FEF0895FC01918D828D9A
:10033000981731F0828DE80FF11D858D90E00895BA
:100340008FEF9FEF0895FC01918D228D892F90E012
:10035000805C9F4F821B91098F73992708958BE0D2
:1003600092E00E94A30121E0892B09F420E0822F72
:10037000089580E090E0892B29F00E94AF0181115F
:100380000C9400000895FC01A48DA80FB92FB11D95
:10039000A35ABF4F2C91848D90E001968F739927BB
:1003A000848FA689B7892C93A089B1898C91837099
:1003B00080648C93938D848D981306C00288F38992
:1003C000E02D80818F7D80830895EF92FF920F93BF
:1003D0001F93CF93DF93EC0181E0888F9B8D8C8DF1
:1003E00098131AC0E889F989808185FF15C09FB7E5
:1003F000F894EE89FF896083E889F98980818370A8
:10040000806480839FBF81E090E0DF91CF911F9156
:100410000F91FF90EF900895F62E0B8D10E00F5F77
:100420001F4F0F731127E02E8C8D8E110CC00FB64D
:1004300007FCFACFE889F989808185FFF5CFCE01E5
:100440000E94C301F1CFEB8DEC0FFD2FF11DE35A9C
:10045000FF4FF0829FB7F8940B8FEA89FB89808168
:100460008062CFCFCF93DF93EC01888D8823B9F0E2
:10047000AA89BB89E889F9898C9185FD03C08081AF
:1004800086FD0DC00FB607FCF7CF8C9185FFF2CF2C
:10049000808185FFEDCFCE010E94C301E9CFDF91BE
:1004A000CF910895FC0101900020E9F73197AF0149
:1004B000481B590BBC018BE092E00C940501CF93D3
:1004C000DF930E945202EC0188E191E00E94520207
:1004D0008C0F9D1FDF91CF9108950F931F93CF93A2
:1004E000DF93EC0188819981009759F02A813B8143
:1004F0002617370730F081E0DF91CF911F910F91E0
:1005000008958B016F5F7F4F0E94AA06009759F0F4
:10051000998388831B830A832C813D81232B59F780
:10052000FC011082E8CF80E0E7CF1F920F920FB658
:100530000F9211242F933F938F939F93AF93BF9369
:100540008091070290910802A0910902B0910A02DD
:100550003091020223E0230F2D3758F50196A11D9B
:10056000B11D209302028093070290930802A0938A
:100570000902B0930A028091030290910402A091B3
:100580000502B09106020196A11DB11D80930302E0
:1005900090930402A0930502B0930602BF91AF911D
:1005A0009F918F913F912F910F900FBE0F901F90B1
:1005B000189526E8230F0296A11DB11DD2CF1F92D8
:1005C0000F920FB60F9211242F933F934F935F9387
:1005D0006F937F938F939F93AF93BF93EF93FF930B
:1005E0008BE092E00E94C301FF91EF91BF91AF9128
:1005F0009F918F917F916F915F914F913F912F913B
:100600000F900FBE0F901F9018951F920F920FB66C
:100610000F9211242F938F939F93EF93FF93E09169
:100620001B02F0911C028081E0912102F0912202D4
:1006300082FD1BC09081809124028F5F8F73209177
:100640002502821741F0E0912402F0E0E55FFD4FC2
:10065000958F80932402FF91EF919F918F912F911D
:100660000F900FBE0F901F9018958081F4CFCF93FD
:10067000DF93CDB7DEB728970FB6F894DEBF0FBE75
:10068000CDBF789484B5826084BD84B5816084BD1B
:1006900085B5826085BD85B5816085BD80916E0020
:1006A000816080936E001092810080918100826051
:1006B000809381008091810081608093810080918E
:1006C00080008160809380008091B100846080937D
:1006D000B1008091B00081608093B00080917A0079
:1006E000846080937A0080917A00826080937A009F
:1006F00080917A00816080937A0080917A0080688E
:1007000080937A001092C100E0911B02F0911C02CC
:1007100082E08083E0911702F09118021082E0914C
:100720001902F0911A028FEC808310922302E0915B
:100730001F02F091200286E08083E0911D02F0917B
:100740001E02808180618083E0911D02F0911E0273
:10075000808188608083E0911D02F0911E0280817B
:1007600080688083E0911D02F0911E0280818F7D60
:10077000808347EA442E40E0542EF201249153E94D
:10078000652E50E0752EF3018491882399F090E056
:10079000880F991FFC01E859FF4FA591B491FC0106
:1007A000E458FF4F859194918FB7F8949C91292B31
:1007B0002C938FBF8BE191E00E945F028CE391E06C
:1007C0000E945F0285E591E00E945F0280E791E070
:1007D0000E945F022BEB222E20E0322E8BE092E073
:1007E0000E94A301181619060CF07EC01A82198205
:1007F0001C821B821E821D8270E060E0CE01019689
:100800000E946D0229813A8181112EC02115310586
:1008100019F0C9010E9421061A8219821E821D82C6
:100820001C821B820E94550197FD26C08A309105CB
:1008300019F18F8318860D811E810F5F1F4FB8013C
:10084000CE0101960E946D02882361F329813A81CD
:100850008D819E81BE01695F7F4F820F931F0E9431
:1008600079071E830D83DECF1E821D826AE171E04F
:10087000C9010E947907D6CFC980DA80C114D1049A
:1008800039F00D811E8176010115110509F05EC058
:100890008CE891E00E9452024D815E8169817A81EB
:1008A0008BE092E00E94050188E191E00E945202F3
:1008B0008D819E81892B09F4AFC009811A816FE96E
:1008C00071E0C8010E947007892B09F075C081E0B2
:1008D0000E94B50086EA91E00E945F0289819A81B8
:1008E000009711F00E9421060E94E0004B015C017C
:1008F0008AE0C82ED12CE12CF12C0E94E00068196E
:1009000079098A099B09683E734081059105A8F31E
:10091000F1E0CF1AD108E108F10828EE820E23E0B9
:10092000921EA11CB11CC114D104E104F10429F7E9
:1009300080E090E0892B09F451CF0E94AF01882319
:1009400009F44CCF0E94000049CF74014701FFEF2A
:100950008F1A9F0AF7018081082E000C990B0E94C4
:100960003C05892B91F7015011090C0D1D1DF80153
:100970008081082E000C990B0E943C05892B31F0D8
:100980000E151F0518F001501109F1CF0F5F1F4F11
:10099000A8014E195F095E834D83CE14DF0420F455
:1009A000B701C6010E946707E981FA818D819E81A6
:1009B000E80FF91F10826CCF64EB71E0C8010E9450
:1009C0007007892B31F480E00E94B5008CEB91E038
:1009D00083CF6BEC71E0C8010E947007892BE1F4B2
:1009E000F1018491F2011491F3010491002389F043
:1009F00081110E948C00E02FF0E0EE0FFF1FEE58F7
:100A0000FF4FA591B4918C91182382ED91E009F0EC
:100A100063CF81EE91E060CF81EF91E05DCFEBE0BD
:100A2000F2E01382128288EE93E0A0E0B0E08483CB
:100A30009583A683B7838AE091E09183808385ECD8
:100A400090E09587848784EC90E09787868780EC98
:100A500090E0918B808B81EC90E0938B828B82EC89
:100A600090E0958B848B86EC90E0978B868B118E33
:100A7000128E138E148E089591110C9445058032B8
:100A800019F089508550C8F7089599278827089547
:100A90002F923F924F925F926F927F928F929F928E
:100AA000AF92BF92CF92DF92EF92FF920F931F937C
:100AB000CF93DF93CDB7DEB7CA1BDB0B0FB6F8942D
:100AC000DEBF0FBECDBF09942A88398848885F846D
:100AD0006E847D848C849B84AA84B984C884DF80DE
:100AE000EE80FD800C811B81AA81B981CE0FD11DC2
:100AF0000FB6F894DEBF0FBECDBFED010895EE0F27
:100B0000FF1F0590F491E02D09940F931F93CF934D
:100B1000DF938230910510F482E090E0E091AA0228
:100B2000F091AB0230E020E0B0E0A0E0309799F423
:100B30002115310509F44AC0281B390B2430310531
:100B4000D8F58A819B816115710589F1FB01938339
:100B50008283FE0111C040815181028113814817B7
:100B60005907E0F04817590799F4109761F0129669
:100B70000C93129713961C933296CF01DF91CF916D
:100B80001F910F9108950093AA021093AB02F4CF26
:100B90002115310551F04217530738F0A901DB0147
:100BA0009A01BD01DF01F801C1CFEF01F9CF9093A8
:100BB000AB028093AA02CDCFFE01E20FF31F819317
:100BC00091932250310939832883D7CF2091A802ED
:100BD0003091A902232B41F42091020130910301AD
:100BE0003093A9022093A8022091000130910101C5
:100BF0002115310541F42DB73EB7409104015091C4
:100C00000501241B350BE091A802F091A902E2171F
:100C1000F307A0F42E1B3F0B2817390778F0AC011F
:100C20004E5F5F4F2417350748F04E0F5F1F5093FC
:100C3000A9024093A802819391939FCFF0E0E0E056
:100C40009CCFCF93DF930097E9F0FC01329713829A
:100C50001282A091AA02B091AB02ED0130E020E037
:100C60001097A1F420813181820F931F2091A80257
:100C70003091A9022817390709F061C0F093A90241
:100C8000E093A802DF91CF910895EA01CE17DF0724
:100C9000E8F54A815B819E0141155105B1F7E901F3
:100CA000FB83EA8349915991C40FD51FEC17FD07C7
:100CB00061F4808191810296840F951FE9019983E7
:100CC0008883828193819B838A83F0E0E0E012969F
:100CD0008D919C9113970097B9F52D913C911197A7
:100CE000CD010296820F931F2091A8023091A90294
:100CF0002817390739F6309751F51092AB02109248
:100D0000AA02B093A902A093A802BCCFD383C28346
:100D100040815181840F951FC817D90761F44E5F38
:100D20005F4F88819981480F591F518340838A8181
:100D30009B81938382832115310509F0B0CFF09315
:100D4000AB02E093AA029ECFFD01DC01C0CF13826B
:100D50001282D7CFB0E0A0E0E0EBF6E00C944A05B9
:100D60008C01009751F4CB010E9485058C01C801CC
:100D7000CDB7DEB7E0E10C946605FC01E60FF71F86
:100D80009C0122503109E217F30708F49DC0D901F4
:100D9000CD91DC911197C617D70798F0C530D105D2
:100DA00030F3CE0104978617970708F3C61BD70BBD
:100DB0002297C193D1936D937C93CF010E9421061A
:100DC000D6CF5B01AC1ABD0A4C018C0E9D1EA091C2
:100DD000AA02B091AB02512C412CF12CE12C1097BE
:100DE00031F58091A8029091A9028815990509F022
:100DF0005CC04616570608F058C0809100019091DB
:100E00000101009741F48DB79EB7409104015091C4
:100E10000501841B950BE817F90708F055C0F093FE
:100E2000A902E093A802F90171836083A0CF8D919C
:100E30009C91119712966C90129713967C90139731
:100E4000A815B90559F56C0142E0C40ED11CCA14AD
:100E5000DB0420F1AC014A195B09DA0112961597FF
:100E600080F06282738251834083D9016D937C93B9
:100E7000E114F10471F0D7011396FC93EE931297ED
:100E800076CF22968C0F9D1FF90191838083F30109
:100E9000EFCFF093AB02E093AA0269CF4816590650
:100EA00008F42C017D01D3019ACFCB010E94850566
:100EB0007C01009749F0AE01B8010E946707C801A4
:100EC0000E942106870153CF10E000E050CFFB01C4
:100ED000DC0102C001900D9241505040D8F70895B6
:100EE000FB01DC018D91019080190110D9F3990B60
:100EF0000895FB01DC0101900D920020E1F70895B7
:040F0000F894FFCF93
:100F04000000AC02800000000000E5010501320190
:100F14003202A301410195010D0A00417264756911
:100F24006E6F2069732072656164792E2053656E3B
:100F34006420636F6D6D616E64733A0020274C45C5
:100F4400445F4F4E2720746F207475726E204C4599
:100F540044206F6E0020274C45445F4F46462720AF
:100F6400746F207475726E204C4544206F66660061
:100F740020275354415455532720746F20676574B8
:100F8400204C454420737461747573005265636525
:100F94006976656420636F6D6D616E643A20004C00
:100FA40045445F4F4E004C4544207475726E656431
:100FB400204F4E004C45445F4F4646004C4544206C
:100FC4007475726E6564204F4646005354415455FF
:100FD40053004C4544207374617475733A204F4E2A
:100FE400004C4544207374617475733A204F46462F
:100FF40000556E6B6E6F776E20636F6D6D616E64FE
:021004000000EA
:00000001FF
